:1000000019C020C01FC01EC01DC01CC01BC01AC00C
:1000100019C018C017C016C015C014C013C012C034
:1000200011C010C00FC00EC00DC00CC00BC00AC064
:1000300009C008C011241FBECFEFCDBFDFE3DEBF74
:100040003AD04CC0DDCF80E480930104E0E0FAE0D8
:10005000108283E181838FEF90E086A397A310A69F
:1000600011A680818160808308952FEF3FEF86176E
:1000700010F421E030E090E070E06817790729F48F
:100080006093280A7093290A08958093280A909310
:10009000290AEFE2F9E93197F1F700C0820F931FC7
:1000A000ECCF909108049823E1F7909108049823ED
:1000B000E1F381E008958CE080930204C4DF84E0E2
:1000C000F0DF882319F06FEF80E0CFDF88E0E9DF11
:1000D0008823A9F360E08FEFC8DFF1CFF894FFCF5A
:00000001FF
